{
  "contractName": "EthSwap",
  "abi": [
    {
      "constant": true,
      "inputs": [
        {
          "name": "",
          "type": "bytes32"
        }
      ],
      "name": "swaps",
      "outputs": [
        {
          "name": "firstParty",
          "type": "address"
        },
        {
          "name": "secondParty",
          "type": "address"
        },
        {
          "name": "firstPartyValue",
          "type": "uint256"
        },
        {
          "name": "secondPartyValue",
          "type": "uint256"
        },
        {
          "name": "startTime",
          "type": "uint256"
        },
        {
          "name": "deadLine",
          "type": "uint256"
        },
        {
          "name": "hashedSecret",
          "type": "bytes32"
        },
        {
          "name": "secret",
          "type": "bytes32"
        },
        {
          "name": "swapState",
          "type": "uint8"
        }
      ],
      "payable": false,
      "stateMutability": "view",
      "type": "function"
    },
    {
      "inputs": [
        {
          "name": "",
          "type": "address"
        }
      ],
      "payable": false,
      "stateMutability": "nonpayable",
      "type": "constructor"
    },
    {
      "anonymous": false,
      "inputs": [
        {
          "indexed": false,
          "name": "firstParty",
          "type": "address"
        },
        {
          "indexed": false,
          "name": "secondParty",
          "type": "address"
        },
        {
          "indexed": false,
          "name": "deadLine",
          "type": "uint256"
        }
      ],
      "name": "FirstPartyInitiated",
      "type": "event"
    },
    {
      "anonymous": false,
      "inputs": [
        {
          "indexed": false,
          "name": "firstParty",
          "type": "address"
        },
        {
          "indexed": false,
          "name": "secondParty",
          "type": "address"
        },
        {
          "indexed": false,
          "name": "deadLine",
          "type": "uint256"
        }
      ],
      "name": "SecondPartyParticipated",
      "type": "event"
    },
    {
      "anonymous": false,
      "inputs": [
        {
          "indexed": false,
          "name": "party",
          "type": "address"
        },
        {
          "indexed": false,
          "name": "deadLine",
          "type": "uint256"
        }
      ],
      "name": "Swapped",
      "type": "event"
    },
    {
      "anonymous": false,
      "inputs": [
        {
          "indexed": false,
          "name": "party",
          "type": "address"
        },
        {
          "indexed": false,
          "name": "deadLine",
          "type": "uint256"
        }
      ],
      "name": "Refunded",
      "type": "event"
    },
    {
      "constant": false,
      "inputs": [
        {
          "name": "secondParty",
          "type": "address"
        },
        {
          "name": "hashedSecret",
          "type": "bytes32"
        },
        {
          "name": "deadLine",
          "type": "uint256"
        }
      ],
      "name": "FirstPartyInitiate",
      "outputs": [],
      "payable": true,
      "stateMutability": "payable",
      "type": "function"
    },
    {
      "constant": false,
      "inputs": [
        {
          "name": "firstParty",
          "type": "address"
        },
        {
          "name": "hashedSecret",
          "type": "bytes32"
        },
        {
          "name": "deadLine",
          "type": "uint256"
        }
      ],
      "name": "SecondPartyParticipate",
      "outputs": [],
      "payable": true,
      "stateMutability": "payable",
      "type": "function"
    },
    {
      "constant": false,
      "inputs": [
        {
          "name": "secret",
          "type": "bytes"
        },
        {
          "name": "hashedSecret",
          "type": "bytes32"
        }
      ],
      "name": "DoSwap",
      "outputs": [],
      "payable": false,
      "stateMutability": "nonpayable",
      "type": "function"
    },
    {
      "constant": false,
      "inputs": [
        {
          "name": "hashedSecret",
          "type": "bytes32"
        }
      ],
      "name": "Refund",
      "outputs": [],
      "payable": false,
      "stateMutability": "nonpayable",
      "type": "function"
    }
  ],
  "bytecode": "0x608060405234801561001057600080fd5b5060405160208061130083398101806040528101908080519060200190929190505050506112bd806100436000396000f30060806040526004361061006d576000357c0100000000000000000000000000000000000000000000000000000000900463ffffffff1680633fbd469e146100725780636023c465146100a35780637b73c919146100f15780638ca5f95c1461013f578063eb84e7f214610188575b600080fd5b34801561007e57600080fd5b506100a1600480360381019080803560001916906020019092919050505061027b565b005b6100ef600480360381019080803573ffffffffffffffffffffffffffffffffffffffff1690602001909291908035600019169060200190929190803590602001909291905050506105b9565b005b61013d600480360381019080803573ffffffffffffffffffffffffffffffffffffffff1690602001909291908035600019169060200190929190803590602001909291905050506109d1565b005b34801561014b57600080fd5b506101866004803603810190808035906020019082018035906020019190919293919293908035600019169060200190929190505050610cb2565b005b34801561019457600080fd5b506101b760048036038101908080356000191690602001909291905050506111f6565b604051808a73ffffffffffffffffffffffffffffffffffffffff1673ffffffffffffffffffffffffffffffffffffffff1681526020018973ffffffffffffffffffffffffffffffffffffffff1673ffffffffffffffffffffffffffffffffffffffff1681526020018881526020018781526020018681526020018581526020018460001916600019168152602001836000191660001916815260200182600381111561025f57fe5b60ff168152602001995050505050505050505060405180910390f35b8060008082600019166000191681526020019081526020016000206005015442111515610336576040517f08c379a00000000000000000000000000000000000000000000000000000000081526004018080602001828103825260278152602001807f5377617020646561646c696e65206e6f74207061737365642c20666f7220726581526020017f66756e64696e670000000000000000000000000000000000000000000000000081525060400191505060405180910390fd5b600080836000191660001916815260200190815260200160002060000160009054906101000a900473ffffffffffffffffffffffffffffffffffffffff1673ffffffffffffffffffffffffffffffffffffffff163373ffffffffffffffffffffffffffffffffffffffff1614156104335760008060008460001916600019168152602001908152602001600020600201819055503373ffffffffffffffffffffffffffffffffffffffff166108fc6000808560001916600019168152602001908152602001600020600201549081150290604051600060405180830381858888f1935050505015801561042d573d6000803e3d6000fd5b5061052d565b600080836000191660001916815260200190815260200160002060010160009054906101000a900473ffffffffffffffffffffffffffffffffffffffff1673ffffffffffffffffffffffffffffffffffffffff163373ffffffffffffffffffffffffffffffffffffffff16141561052c5760008060008460001916600019168152602001908152602001600020600301819055503373ffffffffffffffffffffffffffffffffffffffff166108fc6000808560001916600019168152602001908152602001600020600301549081150290604051600060405180830381858888f1935050505015801561052a573d6000803e3d6000fd5b505b5b7fd7dee2702d63ad89917b6a4da9981c90c4d24f8c2bdfd64c604ecae57d8d065133600080856000191660001916815260200190815260200160002060050154604051808373ffffffffffffffffffffffffffffffffffffffff1673ffffffffffffffffffffffffffffffffffffffff1681526020018281526020019250505060405180910390a15050565b818333600160038111156105c957fe5b600080856000191660001916815260200190815260200160002060080160009054906101000a900460ff1660038111156105ff57fe5b141515610674576040517f08c379a00000000000000000000000000000000000000000000000000000000081526004018080602001828103825260168152602001807f4e6f207377617020696e69746961746f7273207965740000000000000000000081525060200191505060405180910390fd5b8173ffffffffffffffffffffffffffffffffffffffff16600080856000191660001916815260200190815260200160002060000160009054906101000a900473ffffffffffffffffffffffffffffffffffffffff1673ffffffffffffffffffffffffffffffffffffffff16141515610754576040517f08c379a00000000000000000000000000000000000000000000000000000000081526004018080602001828103825260148152602001807f57726f6e67207377617020696e69746961746f7200000000000000000000000081525060200191505060405180910390fd5b8073ffffffffffffffffffffffffffffffffffffffff16600080856000191660001916815260200190815260200160002060010160009054906101000a900473ffffffffffffffffffffffffffffffffffffffff1673ffffffffffffffffffffffffffffffffffffffff16141515610834576040517f08c379a00000000000000000000000000000000000000000000000000000000081526004018080602001828103825260168152602001807f57726f6e672073776170207061727469636970616e740000000000000000000081525060200191505060405180910390fd5b60008084600019166000191681526020019081526020016000206005015442111515156108c9576040517f08c379a00000000000000000000000000000000000000000000000000000000081526004018080602001828103825260148152602001807f5377617020646561646c696e652070617373656400000000000000000000000081525060200191505060405180910390fd5b346000808760001916600019168152602001908152602001600020600301819055506002600080876000191660001916815260200190815260200160002060080160006101000a81548160ff0219169083600381111561092557fe5b02179055507f651d9827031b4eac620ee5f2228fca9a22fab68b8d3179c1db379820a5d59879863386604051808473ffffffffffffffffffffffffffffffffffffffff1673ffffffffffffffffffffffffffffffffffffffff1681526020018373ffffffffffffffffffffffffffffffffffffffff1673ffffffffffffffffffffffffffffffffffffffff168152602001828152602001935050505060405180910390a1505050505050565b81600060038111156109df57fe5b600080836000191660001916815260200190815260200160002060080160009054906101000a900460ff166003811115610a1557fe5b141515610a8a576040517f08c379a00000000000000000000000000000000000000000000000000000000081526004018080602001828103825260188152602001807f48617368206973206e6f74207361666520746f2075736564000000000000000081525060200191505060405180910390fd5b33600080856000191660001916815260200190815260200160002060000160006101000a81548173ffffffffffffffffffffffffffffffffffffffff021916908373ffffffffffffffffffffffffffffffffffffffff16021790555083600080856000191660001916815260200190815260200160002060010160006101000a81548173ffffffffffffffffffffffffffffffffffffffff021916908373ffffffffffffffffffffffffffffffffffffffff16021790555034600080856000191660001916815260200190815260200160002060020181905550426000808560001916600019168152602001908152602001600020600401819055508160008085600019166000191681526020019081526020016000206005018190555082600080856000191660001916815260200190815260200160002060060181600019169055506001600080856000191660001916815260200190815260200160002060080160006101000a81548160ff02191690836003811115610c0857fe5b02179055507f877131ac81752173ff9c67662cb4e36f28bbfa9bd8a45a2f3d8d53eca60094b2338584604051808473ffffffffffffffffffffffffffffffffffffffff1673ffffffffffffffffffffffffffffffffffffffff1681526020018373ffffffffffffffffffffffffffffffffffffffff1673ffffffffffffffffffffffffffffffffffffffff168152602001828152602001935050505060405180910390a150505050565b82828080601f0160208091040260200160405190810160405280939291908181526020018383808284378201915050505050508160026003811115610cf357fe5b600080836000191660001916815260200190815260200160002060080160009054906101000a900460ff166003811115610d2957fe5b141515610d9e576040517f08c379a00000000000000000000000000000000000000000000000000000000081526004018080602001828103825260208152602001807f54776f2070617274696573206e6f7420636f6d6d6974656420746f207377617081525060200191505060405180910390fd5b6000808260001916600019168152602001908152602001600020600501544211151515610e33576040517f08c379a00000000000000000000000000000000000000000000000000000000081526004018080602001828103825260148152602001807f5377617020646561646c696e652070617373656400000000000000000000000081525060200191505060405180910390fd5b60008082600019166000191681526020019081526020016000206006015460001916826040518082805190602001908083835b602083101515610e8b5780518252602082019150602081019050602083039250610e66565b6001836020036101000a038019825116818451168082178552505050505050905001915050604051809103902060001916141515610f31576040517f08c379a00000000000000000000000000000000000000000000000000000000081526004018080602001828103825260098152602001807f57726f6e67206b6579000000000000000000000000000000000000000000000081525060200191505060405180910390fd5b6003600080856000191660001916815260200190815260200160002060080160006101000a81548160ff02191690836003811115610f6b57fe5b0217905550600080846000191660001916815260200190815260200160002060000160009054906101000a900473ffffffffffffffffffffffffffffffffffffffff1673ffffffffffffffffffffffffffffffffffffffff163373ffffffffffffffffffffffffffffffffffffffff16141561106d5760008060008560001916600019168152602001908152602001600020600301819055503373ffffffffffffffffffffffffffffffffffffffff166108fc6000808660001916600019168152602001908152602001600020600301549081150290604051600060405180830381858888f19350505050158015611067573d6000803e3d6000fd5b50611167565b600080846000191660001916815260200190815260200160002060010160009054906101000a900473ffffffffffffffffffffffffffffffffffffffff1673ffffffffffffffffffffffffffffffffffffffff163373ffffffffffffffffffffffffffffffffffffffff1614156111665760008060008560001916600019168152602001908152602001600020600201819055503373ffffffffffffffffffffffffffffffffffffffff166108fc6000808660001916600019168152602001908152602001600020600201549081150290604051600060405180830381858888f19350505050158015611164573d6000803e3d6000fd5b505b5b7fcdee897399ab5e465acb1bd3ed5e32c695f196321764546c59720fa6c9ce4c6933600080866000191660001916815260200190815260200160002060050154604051808373ffffffffffffffffffffffffffffffffffffffff1673ffffffffffffffffffffffffffffffffffffffff1681526020018281526020019250505060405180910390a15050505050565b60006020528060005260406000206000915090508060000160009054906101000a900473ffffffffffffffffffffffffffffffffffffffff16908060010160009054906101000a900473ffffffffffffffffffffffffffffffffffffffff16908060020154908060030154908060040154908060050154908060060154908060070154908060080160009054906101000a900460ff169050895600a165627a7a72305820ed70f7eb325de78840ec496249c6a6a8bbfb4e0b0adc244ceaccb92d54feed770029",
  "source": "pragma solidity ^0.4.23;\n\nimport \"./IEthSwap.sol\";\n\n\ncontract EthSwap is IEthSwap{\n\n\t// All the swaps\n\tmapping (bytes32 => Swap) public swaps;\n\n\t// State of a swap\n\tenum SwapState { Usable, OneHand, TwoHands, NotUsable }\n\t\n\t// A Swap structure\n\tstruct Swap {\n\t\taddress firstParty;\n\t\taddress secondParty;\n\t\tuint firstPartyValue;\n\t\tuint secondPartyValue;\n\t\tuint startTime;\n\t\tuint deadLine;\n\t\tbytes32 hashedSecret;\n\t\tbytes32 secret;\n\t\tSwapState swapState;\t\t\n\t}\n\n\t// Events\n\tevent FirstPartyInitiated(address firstParty, address secondParty, uint deadLine);\n\tevent SecondPartyParticipated(address firstParty, address secondParty, uint deadLine);\n\tevent Swapped(address party, uint deadLine);\n\tevent Refunded(address party, uint deadLine);\n\n\t//Modifiers\n\tmodifier canInitiate(bytes32 secretHash) { \n\t\trequire (swaps[secretHash].swapState == SwapState.Usable, \"Hash is not safe to used\"); \n\t\t_; \n\t}\n\n\tmodifier canParticipate(bytes32 secretHash, address firstParty, address secondParty) { \n\t\trequire (swaps[secretHash].swapState == SwapState.OneHand, \"No swap initiators yet\");\n\t\trequire (swaps[secretHash].firstParty == firstParty, \"Wrong swap initiator\");\n\t\trequire (swaps[secretHash].secondParty == secondParty, \"Wrong swap participant\");\n\t\trequire (block.timestamp <= swaps[secretHash].deadLine, \"Swap deadline passed\");\n\t\t_; \n\t}\n\n\tmodifier canSwap(bytes secret, bytes32 secretHash) { \n\t\trequire (swaps[secretHash].swapState == SwapState.TwoHands, \"Two parties not commited to swap\");\n\t\trequire (block.timestamp <= swaps[secretHash].deadLine, \"Swap deadline passed\");\n\t\trequire (keccak256(secret) == swaps[secretHash].hashedSecret, \"Wrong key\");\n\t\t_; \n\t}\n\n\tmodifier canRefund(bytes32 secretHash) { \n\t\trequire (block.timestamp > swaps[secretHash].deadLine, \"Swap deadline not passed, for refunding\");\n\t\t_; \n\t}\n\t\n\n\tconstructor(EthSwap) public {}\n\n\tfunction FirstPartyInitiate(\n\t\taddress secondParty,\n\t\tbytes32 hashedSecret,\n\t\tuint deadLine)\n\texternal payable\n\tcanInitiate(hashedSecret) {\n\t\tswaps[hashedSecret].firstParty = msg.sender;\n\t\tswaps[hashedSecret].secondParty = secondParty;\n\t\tswaps[hashedSecret].firstPartyValue = msg.value;\n\t\tswaps[hashedSecret].startTime = block.timestamp;\n\t\tswaps[hashedSecret].deadLine = deadLine;\n\t\tswaps[hashedSecret].hashedSecret = hashedSecret;\n\t\tswaps[hashedSecret].swapState = SwapState.OneHand;\n\n\t\temit FirstPartyInitiated(msg.sender, secondParty, deadLine);\n\t}\n\n\tfunction SecondPartyParticipate (\n\t\taddress firstParty,\n\t\tbytes32 hashedSecret,\n\t\tuint deadLine)\n\texternal payable\n\tcanParticipate(hashedSecret, firstParty, msg.sender) {\n\t\tswaps[hashedSecret].secondPartyValue = msg.value;\n\t\tswaps[hashedSecret].swapState = SwapState.TwoHands;\n\n\t\temit SecondPartyParticipated(firstParty, msg.sender, deadLine);\n\t}\n\t\n\tfunction DoSwap (\n\t\tbytes secret,\n\t\tbytes32 hashedSecret)\n\texternal\n\tcanSwap(secret, hashedSecret) {\n\t\tswaps[hashedSecret].swapState = SwapState.NotUsable;\n\t\tif(msg.sender == swaps[hashedSecret].firstParty) {\n\t\t\tswaps[hashedSecret].secondPartyValue = 0;\n\t\t\tmsg.sender.transfer(swaps[hashedSecret].secondPartyValue);\n\t\t} else \n\t\tif(msg.sender == swaps[hashedSecret].secondParty) {\n\t\t\tswaps[hashedSecret].firstPartyValue =  0;\n\t\t\tmsg.sender.transfer(swaps[hashedSecret].firstPartyValue);\n\t\t}\n\n\t\temit Swapped(msg.sender, swaps[hashedSecret].deadLine);\n\t}\n\n\tfunction Refund (\n\t\tbytes32 hashedSecret)\n\texternal\n\tcanRefund(hashedSecret) {\n\t\tif(msg.sender == swaps[hashedSecret].firstParty) {\n\t\t\tswaps[hashedSecret].firstPartyValue = 0;\n\t\t\tmsg.sender.transfer(swaps[hashedSecret].firstPartyValue);\n\t\t} else \n\t\tif(msg.sender == swaps[hashedSecret].secondParty) {\n\t\t\tswaps[hashedSecret].secondPartyValue =  0;\n\t\t\tmsg.sender.transfer(swaps[hashedSecret].secondPartyValue);\n\t\t}\n\n\t\temit Refunded(msg.sender, swaps[hashedSecret].deadLine);\n\t}\n}\n",
  "sourcePath": "E:\\Profs\\public repos\\ethereum-Ðapps\\atomic swap\\contracts\\EthSwap.sol",
  "compiler": {
    "name": "solc",
    "version": "0.4.24+commit.e67f0147.Emscripten.clang"
  },
  "schemaVersion": "2.0.0",
  "updatedAt": "2018-05-26T16:33:20.069Z"
}