{
  "contractName": "EthSwap",
  "abi": [
    {
      "constant": true,
      "inputs": [
        {
          "name": "",
          "type": "bytes20"
        }
      ],
      "name": "swaps",
      "outputs": [
        {
          "name": "firstParty",
          "type": "address"
        },
        {
          "name": "secondParty",
          "type": "address"
        },
        {
          "name": "firstPartyValue",
          "type": "uint256"
        },
        {
          "name": "secondPartyValue",
          "type": "uint256"
        },
        {
          "name": "startTime",
          "type": "uint256"
        },
        {
          "name": "deadLine",
          "type": "uint256"
        },
        {
          "name": "hashedSecret",
          "type": "bytes20"
        },
        {
          "name": "secret",
          "type": "bytes32"
        },
        {
          "name": "swapState",
          "type": "uint8"
        }
      ],
      "payable": false,
      "stateMutability": "view",
      "type": "function"
    },
    {
      "inputs": [
        {
          "name": "",
          "type": "address"
        }
      ],
      "payable": false,
      "stateMutability": "nonpayable",
      "type": "constructor"
    },
    {
      "anonymous": false,
      "inputs": [
        {
          "indexed": false,
          "name": "firstParty",
          "type": "address"
        },
        {
          "indexed": false,
          "name": "secondParty",
          "type": "address"
        },
        {
          "indexed": false,
          "name": "deadLine",
          "type": "uint256"
        }
      ],
      "name": "FirstPartyInitiated",
      "type": "event"
    },
    {
      "anonymous": false,
      "inputs": [
        {
          "indexed": false,
          "name": "firstParty",
          "type": "address"
        },
        {
          "indexed": false,
          "name": "secondParty",
          "type": "address"
        },
        {
          "indexed": false,
          "name": "deadLine",
          "type": "uint256"
        }
      ],
      "name": "SecondPartyParticipated",
      "type": "event"
    },
    {
      "anonymous": false,
      "inputs": [
        {
          "indexed": false,
          "name": "party",
          "type": "address"
        },
        {
          "indexed": false,
          "name": "deadLine",
          "type": "uint256"
        }
      ],
      "name": "Swapped",
      "type": "event"
    },
    {
      "anonymous": false,
      "inputs": [
        {
          "indexed": false,
          "name": "party",
          "type": "address"
        },
        {
          "indexed": false,
          "name": "deadLine",
          "type": "uint256"
        }
      ],
      "name": "Refunded",
      "type": "event"
    },
    {
      "constant": false,
      "inputs": [
        {
          "name": "secondParty",
          "type": "address"
        },
        {
          "name": "hashedSecret",
          "type": "bytes20"
        },
        {
          "name": "deadLine",
          "type": "uint256"
        }
      ],
      "name": "FirstPartyInitiate",
      "outputs": [],
      "payable": true,
      "stateMutability": "payable",
      "type": "function"
    },
    {
      "constant": false,
      "inputs": [
        {
          "name": "firstParty",
          "type": "address"
        },
        {
          "name": "hashedSecret",
          "type": "bytes20"
        },
        {
          "name": "deadLine",
          "type": "uint256"
        }
      ],
      "name": "SecondPartyParticipate",
      "outputs": [],
      "payable": true,
      "stateMutability": "payable",
      "type": "function"
    },
    {
      "constant": false,
      "inputs": [
        {
          "name": "secret",
          "type": "bytes32"
        },
        {
          "name": "hashedSecret",
          "type": "bytes20"
        }
      ],
      "name": "DoSwap",
      "outputs": [],
      "payable": false,
      "stateMutability": "nonpayable",
      "type": "function"
    },
    {
      "constant": false,
      "inputs": [
        {
          "name": "hashedSecret",
          "type": "bytes20"
        }
      ],
      "name": "Refund",
      "outputs": [],
      "payable": false,
      "stateMutability": "nonpayable",
      "type": "function"
    }
  ],
  "bytecode": "0x608060405234801561001057600080fd5b506040516020806112dd833981018060405281019080805190602001909291905050505061129a806100436000396000f30060806040526004361061006d576000357c0100000000000000000000000000000000000000000000000000000000900463ffffffff1680637f67a4c314610072578063cb7e1dbd146100cb578063dd21555414610115578063df063b4c14610151578063f325cc91146101aa575b600080fd5b6100c9600480360381019080803573ffffffffffffffffffffffffffffffffffffffff16906020019092919080356bffffffffffffffffffffffff19169060200190929190803590602001909291905050506102be565b005b3480156100d757600080fd5b50610113600480360381019080803560001916906020019092919080356bffffffffffffffffffffffff191690602001909291905050506105b6565b005b34801561012157600080fd5b5061014f60048036038101908080356bffffffffffffffffffffffff19169060200190929190505050610b03565b005b6101a8600480360381019080803573ffffffffffffffffffffffffffffffffffffffff16906020019092919080356bffffffffffffffffffffffff1916906020019092919080359060200190929190505050610e62565b005b3480156101b657600080fd5b506101e460048036038101908080356bffffffffffffffffffffffff191690602001909291905050506111ba565b604051808a73ffffffffffffffffffffffffffffffffffffffff1673ffffffffffffffffffffffffffffffffffffffff1681526020018973ffffffffffffffffffffffffffffffffffffffff1673ffffffffffffffffffffffffffffffffffffffff168152602001888152602001878152602001868152602001858152602001846bffffffffffffffffffffffff19166bffffffffffffffffffffffff1916815260200183600019166000191681526020018260038111156102a257fe5b60ff168152602001995050505050505050505060405180910390f35b818333600160038111156102ce57fe5b600080856bffffffffffffffffffffffff19166bffffffffffffffffffffffff1916815260200190815260200160002060080160009054906101000a900460ff16600381111561031a57fe5b14151561032657600080fd5b8173ffffffffffffffffffffffffffffffffffffffff16600080856bffffffffffffffffffffffff19166bffffffffffffffffffffffff1916815260200190815260200160002060000160009054906101000a900473ffffffffffffffffffffffffffffffffffffffff1673ffffffffffffffffffffffffffffffffffffffff161415156103b357600080fd5b8073ffffffffffffffffffffffffffffffffffffffff16600080856bffffffffffffffffffffffff19166bffffffffffffffffffffffff1916815260200190815260200160002060010160009054906101000a900473ffffffffffffffffffffffffffffffffffffffff1673ffffffffffffffffffffffffffffffffffffffff1614151561044057600080fd5b600080846bffffffffffffffffffffffff19166bffffffffffffffffffffffff1916815260200190815260200160002060050154421115151561048257600080fd5b34600080876bffffffffffffffffffffffff19166bffffffffffffffffffffffff19168152602001908152602001600020600301819055506002600080876bffffffffffffffffffffffff19166bffffffffffffffffffffffff1916815260200190815260200160002060080160006101000a81548160ff0219169083600381111561050a57fe5b02179055507f651d9827031b4eac620ee5f2228fca9a22fab68b8d3179c1db379820a5d59879863386604051808473ffffffffffffffffffffffffffffffffffffffff1673ffffffffffffffffffffffffffffffffffffffff1681526020018373ffffffffffffffffffffffffffffffffffffffff1673ffffffffffffffffffffffffffffffffffffffff168152602001828152602001935050505060405180910390a1505050505050565b8181600260038111156105c557fe5b600080836bffffffffffffffffffffffff19166bffffffffffffffffffffffff1916815260200190815260200160002060080160009054906101000a900460ff16600381111561061157fe5b14151561061d57600080fd5b600080826bffffffffffffffffffffffff19166bffffffffffffffffffffffff1916815260200190815260200160002060050154421115151561065f57600080fd5b600080826bffffffffffffffffffffffff19166bffffffffffffffffffffffff1916815260200190815260200160002060060160009054906101000a90046c01000000000000000000000000026bffffffffffffffffffffffff19166003836040516020018082600019166000191681526020019150506040516020818303038152906040526040518082805190602001908083835b60208310151561071a57805182526020820191506020810190506020830392506106f5565b6001836020036101000a0380198251168184511680821785525050505050509050019150506020604051808303816000865af115801561075e573d6000803e3d6000fd5b505050604051516c01000000000000000000000000026bffffffffffffffffffffffff191614151561078f57600080fd5b6003600080856bffffffffffffffffffffffff19166bffffffffffffffffffffffff1916815260200190815260200160002060080160006101000a81548160ff021916908360038111156107df57fe5b0217905550600080846bffffffffffffffffffffffff19166bffffffffffffffffffffffff1916815260200190815260200160002060000160009054906101000a900473ffffffffffffffffffffffffffffffffffffffff1673ffffffffffffffffffffffffffffffffffffffff163373ffffffffffffffffffffffffffffffffffffffff161415610923576000806000856bffffffffffffffffffffffff19166bffffffffffffffffffffffff19168152602001908152602001600020600301819055503373ffffffffffffffffffffffffffffffffffffffff166108fc600080866bffffffffffffffffffffffff19166bffffffffffffffffffffffff19168152602001908152602001600020600301549081150290604051600060405180830381858888f1935050505015801561091d573d6000803e3d6000fd5b50610a5f565b600080846bffffffffffffffffffffffff19166bffffffffffffffffffffffff1916815260200190815260200160002060010160009054906101000a900473ffffffffffffffffffffffffffffffffffffffff1673ffffffffffffffffffffffffffffffffffffffff163373ffffffffffffffffffffffffffffffffffffffff161415610a5e576000806000856bffffffffffffffffffffffff19166bffffffffffffffffffffffff19168152602001908152602001600020600201819055503373ffffffffffffffffffffffffffffffffffffffff166108fc600080866bffffffffffffffffffffffff19166bffffffffffffffffffffffff19168152602001908152602001600020600201549081150290604051600060405180830381858888f19350505050158015610a5c573d6000803e3d6000fd5b505b5b7fcdee897399ab5e465acb1bd3ed5e32c695f196321764546c59720fa6c9ce4c6933600080866bffffffffffffffffffffffff19166bffffffffffffffffffffffff1916815260200190815260200160002060050154604051808373ffffffffffffffffffffffffffffffffffffffff1673ffffffffffffffffffffffffffffffffffffffff1681526020018281526020019250505060405180910390a150505050565b80600080826bffffffffffffffffffffffff19166bffffffffffffffffffffffff191681526020019081526020016000206005015442111515610b4557600080fd5b600080836bffffffffffffffffffffffff19166bffffffffffffffffffffffff1916815260200190815260200160002060000160009054906101000a900473ffffffffffffffffffffffffffffffffffffffff1673ffffffffffffffffffffffffffffffffffffffff163373ffffffffffffffffffffffffffffffffffffffff161415610c84576000806000846bffffffffffffffffffffffff19166bffffffffffffffffffffffff19168152602001908152602001600020600201819055503373ffffffffffffffffffffffffffffffffffffffff166108fc600080856bffffffffffffffffffffffff19166bffffffffffffffffffffffff19168152602001908152602001600020600201549081150290604051600060405180830381858888f19350505050158015610c7e573d6000803e3d6000fd5b50610dc0565b600080836bffffffffffffffffffffffff19166bffffffffffffffffffffffff1916815260200190815260200160002060010160009054906101000a900473ffffffffffffffffffffffffffffffffffffffff1673ffffffffffffffffffffffffffffffffffffffff163373ffffffffffffffffffffffffffffffffffffffff161415610dbf576000806000846bffffffffffffffffffffffff19166bffffffffffffffffffffffff19168152602001908152602001600020600301819055503373ffffffffffffffffffffffffffffffffffffffff166108fc600080856bffffffffffffffffffffffff19166bffffffffffffffffffffffff19168152602001908152602001600020600301549081150290604051600060405180830381858888f19350505050158015610dbd573d6000803e3d6000fd5b505b5b7fd7dee2702d63ad89917b6a4da9981c90c4d24f8c2bdfd64c604ecae57d8d065133600080856bffffffffffffffffffffffff19166bffffffffffffffffffffffff1916815260200190815260200160002060050154604051808373ffffffffffffffffffffffffffffffffffffffff1673ffffffffffffffffffffffffffffffffffffffff1681526020018281526020019250505060405180910390a15050565b8160006003811115610e7057fe5b600080836bffffffffffffffffffffffff19166bffffffffffffffffffffffff1916815260200190815260200160002060080160009054906101000a900460ff166003811115610ebc57fe5b141515610ec857600080fd5b33600080856bffffffffffffffffffffffff19166bffffffffffffffffffffffff1916815260200190815260200160002060000160006101000a81548173ffffffffffffffffffffffffffffffffffffffff021916908373ffffffffffffffffffffffffffffffffffffffff16021790555083600080856bffffffffffffffffffffffff19166bffffffffffffffffffffffff1916815260200190815260200160002060010160006101000a81548173ffffffffffffffffffffffffffffffffffffffff021916908373ffffffffffffffffffffffffffffffffffffffff16021790555034600080856bffffffffffffffffffffffff19166bffffffffffffffffffffffff191681526020019081526020016000206002018190555042600080856bffffffffffffffffffffffff19166bffffffffffffffffffffffff191681526020019081526020016000206004018190555081600080856bffffffffffffffffffffffff19166bffffffffffffffffffffffff191681526020019081526020016000206005018190555082600080856bffffffffffffffffffffffff19166bffffffffffffffffffffffff1916815260200190815260200160002060060160006101000a81548173ffffffffffffffffffffffffffffffffffffffff02191690836c01000000000000000000000000900402179055506001600080856bffffffffffffffffffffffff19166bffffffffffffffffffffffff1916815260200190815260200160002060080160006101000a81548160ff0219169083600381111561111057fe5b02179055507f877131ac81752173ff9c67662cb4e36f28bbfa9bd8a45a2f3d8d53eca60094b2338584604051808473ffffffffffffffffffffffffffffffffffffffff1673ffffffffffffffffffffffffffffffffffffffff1681526020018373ffffffffffffffffffffffffffffffffffffffff1673ffffffffffffffffffffffffffffffffffffffff168152602001828152602001935050505060405180910390a150505050565b60006020528060005260406000206000915090508060000160009054906101000a900473ffffffffffffffffffffffffffffffffffffffff16908060010160009054906101000a900473ffffffffffffffffffffffffffffffffffffffff16908060020154908060030154908060040154908060050154908060060160009054906101000a90046c0100000000000000000000000002908060070154908060080160009054906101000a900460ff169050895600a165627a7a723058203d9fb5ba7f514c372326491e2ca20af99c810e2fcfaa261cbc05e64458e7fc790029",
  "source": "pragma solidity ^0.4.23;\n\nimport \"./IEthSwap.sol\";\n\n\ncontract EthSwap is IEthSwap{\n\n\t// All the swaps\n\tmapping (bytes20 => Swap) public swaps;\n\n\t// State of a swap\n\tenum SwapState { Usable, OneHand, TwoHands, NotUsable }\n\t\n\t// A Swap structure\n\tstruct Swap {\n\t\taddress firstParty;\n\t\taddress secondParty;\n\t\tuint firstPartyValue;\n\t\tuint secondPartyValue;\n\t\tuint startTime;\n\t\tuint deadLine;\n\t\tbytes20 hashedSecret;\n\t\tbytes32 secret;\n\t\tSwapState swapState;\t\t\n\t}\n\n\t// Events\n\tevent FirstPartyInitiated(address firstParty, address secondParty, uint deadLine);\n\tevent SecondPartyParticipated(address firstParty, address secondParty, uint deadLine);\n\tevent Swapped(address party, uint deadLine);\n\tevent Refunded(address party, uint deadLine);\n\n\t//Modifiers\n\tmodifier canInitiate(bytes20 secretHash) { \n\t\trequire (swaps[secretHash].swapState == SwapState.Usable); \n\t\t_; \n\t}\n\n\tmodifier canParticipate(bytes20 secretHash, address firstParty, address secondParty) { \n\t\trequire (swaps[secretHash].swapState == SwapState.OneHand);\n\t\trequire (swaps[secretHash].firstParty == firstParty);\n\t\trequire (swaps[secretHash].secondParty == secondParty);\n\t\trequire (block.timestamp <= swaps[secretHash].deadLine);\n\t\t_; \n\t}\n\n\tmodifier canSwap(bytes32 secret, bytes20 secretHash) { \n\t\trequire (swaps[secretHash].swapState == SwapState.TwoHands);\n\t\trequire (block.timestamp <= swaps[secretHash].deadLine);\n\t\trequire (ripemd160(abi.encodePacked(secret)) == swaps[secretHash].hashedSecret);\n\t\t_; \n\t}\n\n\tmodifier canRefund(bytes20 secretHash) { \n\t\trequire (block.timestamp > swaps[secretHash].deadLine);\n\t\t_; \n\t}\n\t\n\n\tconstructor(EthSwap) public {}\n\n\tfunction FirstPartyInitiate(\n\t\taddress secondParty,\n\t\tbytes20 hashedSecret,\n\t\tuint deadLine)\n\texternal payable\n\tcanInitiate(hashedSecret) {\n\t\tswaps[hashedSecret].firstParty = msg.sender;\n\t\tswaps[hashedSecret].secondParty = secondParty;\n\t\tswaps[hashedSecret].firstPartyValue = msg.value;\n\t\tswaps[hashedSecret].startTime = block.timestamp;\n\t\tswaps[hashedSecret].deadLine = deadLine;\n\t\tswaps[hashedSecret].hashedSecret = hashedSecret;\n\t\tswaps[hashedSecret].swapState = SwapState.OneHand;\n\n\t\temit FirstPartyInitiated(msg.sender, secondParty, deadLine);\n\t}\n\n\tfunction SecondPartyParticipate (\n\t\taddress firstParty,\n\t\tbytes20 hashedSecret,\n\t\tuint deadLine)\n\texternal payable\n\tcanParticipate(hashedSecret, firstParty, msg.sender) {\n\t\tswaps[hashedSecret].secondPartyValue = msg.value;\n\t\tswaps[hashedSecret].swapState = SwapState.TwoHands;\n\n\t\temit SecondPartyParticipated(firstParty, msg.sender, deadLine);\n\t}\n\t\n\tfunction DoSwap (\n\t\tbytes32 secret,\n\t\tbytes20 hashedSecret)\n\texternal\n\tcanSwap(secret, hashedSecret) {\n\t\tswaps[hashedSecret].swapState = SwapState.NotUsable;\n\t\tif(msg.sender == swaps[hashedSecret].firstParty) {\n\t\t\tswaps[hashedSecret].secondPartyValue = 0;\n\t\t\tmsg.sender.transfer(swaps[hashedSecret].secondPartyValue);\n\t\t} else \n\t\tif(msg.sender == swaps[hashedSecret].secondParty) {\n\t\t\tswaps[hashedSecret].firstPartyValue =  0;\n\t\t\tmsg.sender.transfer(swaps[hashedSecret].firstPartyValue);\n\t\t}\n\n\t\temit Swapped(msg.sender, swaps[hashedSecret].deadLine);\n\t}\n\n\tfunction Refund (\n\t\tbytes20 hashedSecret)\n\texternal\n\tcanRefund(hashedSecret) {\n\t\tif(msg.sender == swaps[hashedSecret].firstParty) {\n\t\t\tswaps[hashedSecret].firstPartyValue = 0;\n\t\t\tmsg.sender.transfer(swaps[hashedSecret].firstPartyValue);\n\t\t} else \n\t\tif(msg.sender == swaps[hashedSecret].secondParty) {\n\t\t\tswaps[hashedSecret].secondPartyValue =  0;\n\t\t\tmsg.sender.transfer(swaps[hashedSecret].secondPartyValue);\n\t\t}\n\n\t\temit Refunded(msg.sender, swaps[hashedSecret].deadLine);\n\t}\n}\n",
  "sourcePath": "E:\\Profs\\public repos\\ethereum-Ðapps\\atomic swap\\contracts\\EthSwap.sol",
  "compiler": {
    "name": "solc",
    "version": "0.4.24+commit.e67f0147.Emscripten.clang"
  },
  "schemaVersion": "2.0.0",
  "updatedAt": "2018-05-25T02:21:20.346Z"
}